{
  "contractName": "DataStorage",
  "abi": [
    {
      "anonymous": false,
      "inputs": [
        {
          "indexed": true,
          "internalType": "uint256",
          "name": "id",
          "type": "uint256"
        },
        {
          "indexed": false,
          "internalType": "string",
          "name": "fileName",
          "type": "string"
        }
      ],
      "name": "ZipFileStored",
      "type": "event"
    },
    {
      "constant": true,
      "inputs": [],
      "name": "fileCount",
      "outputs": [
        {
          "internalType": "uint256",
          "name": "",
          "type": "uint256"
        }
      ],
      "payable": false,
      "stateMutability": "view",
      "type": "function"
    },
    {
      "constant": true,
      "inputs": [
        {
          "internalType": "uint256",
          "name": "",
          "type": "uint256"
        }
      ],
      "name": "storedFiles",
      "outputs": [
        {
          "internalType": "string",
          "name": "fileName",
          "type": "string"
        },
        {
          "internalType": "string",
          "name": "encodedZipFile",
          "type": "string"
        }
      ],
      "payable": false,
      "stateMutability": "view",
      "type": "function"
    },
    {
      "constant": false,
      "inputs": [
        {
          "internalType": "string",
          "name": "_fileName",
          "type": "string"
        },
        {
          "internalType": "string",
          "name": "_zipData",
          "type": "string"
        }
      ],
      "name": "storeZipFile",
      "outputs": [],
      "payable": false,
      "stateMutability": "nonpayable",
      "type": "function"
    },
    {
      "constant": true,
      "inputs": [],
      "name": "getFileNames",
      "outputs": [
        {
          "internalType": "string[]",
          "name": "",
          "type": "string[]"
        }
      ],
      "payable": false,
      "stateMutability": "view",
      "type": "function"
    },
    {
      "constant": true,
      "inputs": [
        {
          "internalType": "uint256",
          "name": "_fileId",
          "type": "uint256"
        }
      ],
      "name": "getZipFile",
      "outputs": [
        {
          "internalType": "string",
          "name": "",
          "type": "string"
        }
      ],
      "payable": false,
      "stateMutability": "view",
      "type": "function"
    }
  ],
  "bytecode": "0x608060405234801561001057600080fd5b50610aa3806100206000396000f3fe608060405234801561001057600080fd5b50600436106100575760003560e01c8063439535191461005c578063bd8b09281461007a578063bfcd5289146100ab578063eae67627146100c9578063fcd5e1b1146100f9575b600080fd5b610064610115565b6040516100719190610907565b60405180910390f35b610094600480360361008f91908101906106c0565b61011b565b6040516100a29291906108b0565b60405180910390f35b6100b361026f565b6040516100c0919061086c565b60405180910390f35b6100e360048036036100de91908101906106c0565b610395565b6040516100f0919061088e565b60405180910390f35b610113600480360361010e9190810190610654565b610490565b005b60015481565b6000602052806000526040600020600091509050806000018054600181600116156101000203166002900480601f0160208091040260200160405190810160405280929190818152602001828054600181600116156101000203166002900480156101c75780601f1061019c576101008083540402835291602001916101c7565b820191906000526020600020905b8154815290600101906020018083116101aa57829003601f168201915b505050505090806001018054600181600116156101000203166002900480601f0160208091040260200160405190810160405280929190818152602001828054600181600116156101000203166002900480156102655780601f1061023a57610100808354040283529160200191610265565b820191906000526020600020905b81548152906001019060200180831161024857829003601f168201915b5050505050905082565b6060806001546040519080825280602002602001820160405280156102a857816020015b60608152602001906001900390816102935790505b50905060008090505b60015481101561038d576000808281526020019081526020016000206000018054600181600116156101000203166002900480601f0160208091040260200160405190810160405280929190818152602001828054600181600116156101000203166002900480156103645780601f1061033957610100808354040283529160200191610364565b820191906000526020600020905b81548152906001019060200180831161034757829003601f168201915b505050505082828151811061037557fe5b602002602001018190525080806001019150506102b1565b508091505090565b606060015482106103db576040517f08c379a00000000000000000000000000000000000000000000000000000000081526004016103d2906108e7565b60405180910390fd5b6000808381526020019081526020016000206001018054600181600116156101000203166002900480601f0160208091040260200160405190810160405280929190818152602001828054600181600116156101000203166002900480156104845780601f1061045957610100808354040283529160200191610484565b820191906000526020600020905b81548152906001019060200180831161046757829003601f168201915b50505050509050919050565b604051806040016040528083815260200182815250600080600154815260200190815260200160002060008201518160000190805190602001906104d5929190610546565b5060208201518160010190805190602001906104f2929190610546565b509050506001547faedd78fd878cb6b0f1fad3410a8892e3c0bf6eb68a50190fa8427531c656b53983604051610528919061088e565b60405180910390a26001600081548092919060010191905055505050565b828054600181600116156101000203166002900490600052602060002090601f016020900481019282601f1061058757805160ff19168380011785556105b5565b828001600101855582156105b5579182015b828111156105b4578251825591602001919060010190610599565b5b5090506105c291906105c6565b5090565b6105e891905b808211156105e45760008160009055506001016105cc565b5090565b90565b600082601f8301126105fc57600080fd5b813561060f61060a8261094f565b610922565b9150808252602083016020830185838301111561062b57600080fd5b6106368382846109f6565b50505092915050565b60008135905061064e81610a49565b92915050565b6000806040838503121561066757600080fd5b600083013567ffffffffffffffff81111561068157600080fd5b61068d858286016105eb565b925050602083013567ffffffffffffffff8111156106aa57600080fd5b6106b6858286016105eb565b9150509250929050565b6000602082840312156106d257600080fd5b60006106e08482850161063f565b91505092915050565b60006106f583836107ab565b905092915050565b60006107088261098b565b61071281856109b9565b9350836020820285016107248561097b565b8060005b85811015610760578484038952815161074185826106e9565b945061074c836109ac565b925060208a01995050600181019050610728565b50829750879550505050505092915050565b600061077d826109a1565b61078781856109db565b9350610797818560208601610a05565b6107a081610a38565b840191505092915050565b60006107b682610996565b6107c081856109ca565b93506107d0818560208601610a05565b6107d981610a38565b840191505092915050565b60006107ef82610996565b6107f981856109db565b9350610809818560208601610a05565b61081281610a38565b840191505092915050565b600061082a600f836109db565b91507f496e76616c69642066696c6520494400000000000000000000000000000000006000830152602082019050919050565b610866816109ec565b82525050565b6000602082019050818103600083015261088681846106fd565b905092915050565b600060208201905081810360008301526108a88184610772565b905092915050565b600060408201905081810360008301526108ca81856107e4565b905081810360208301526108de81846107e4565b90509392505050565b600060208201905081810360008301526109008161081d565b9050919050565b600060208201905061091c600083018461085d565b92915050565b6000604051905081810181811067ffffffffffffffff8211171561094557600080fd5b8060405250919050565b600067ffffffffffffffff82111561096657600080fd5b601f19601f8301169050602081019050919050565b6000819050602082019050919050565b600081519050919050565b600081519050919050565b600081519050919050565b6000602082019050919050565b600082825260208201905092915050565b600082825260208201905092915050565b600082825260208201905092915050565b6000819050919050565b82818337600083830152505050565b60005b83811015610a23578082015181840152602081019050610a08565b83811115610a32576000848401525b50505050565b6000601f19601f8301169050919050565b610a52816109ec565b8114610a5d57600080fd5b5056fea365627a7a72315820064275dd6602efa3708c8e5903cb641ce68a6b90c744c307ce883bb0a87f81686c6578706572696d656e74616cf564736f6c63430005100040",
  "source": "// SPDX-License-Identifier: MIT\npragma solidity >=0.5.0 <0.9.0;\npragma experimental ABIEncoderV2;\n\ncontract DataStorage {\n    struct FileData {\n        string fileName;\n        string encodedZipFile;\n    }\n\n    mapping(uint256 => FileData) public storedFiles;\n    uint256 public fileCount;\n\n    event ZipFileStored(uint256 indexed id, string fileName);\n\n    function storeZipFile(string memory _fileName, string memory _zipData) public {\n        storedFiles[fileCount] = FileData(_fileName, _zipData);\n        emit ZipFileStored(fileCount, _fileName);\n        fileCount++;\n    }\n\n    function getFileNames() public view returns (string[] memory) {\n        string[] memory fileNames = new string[](fileCount);\n        for (uint256 i = 0; i < fileCount; i++) {\n            fileNames[i] = storedFiles[i].fileName;\n        }\n        return fileNames;\n    }\n\n    function getZipFile(uint256 _fileId) public view returns (string memory) {\n        require(_fileId < fileCount, \"Invalid file ID\");\n        return storedFiles[_fileId].encodedZipFile;\n    }\n}\n",
  "sourcePath": "C:\\Users\\user\\Documents\\GitHub\\blockchain_Research_Proj\\Blockchain_component - Copy (2)\\contracts\\DataStorage.sol",
  "compiler": {
    "name": "solc",
    "version": "0.5.16+commit.9c3226ce.Emscripten.clang"
  },
  "schemaVersion": "3.4.16",
  "updatedAt": "2025-03-05T11:07:36.018Z",
  "networkType": "ethereum",
  "devdoc": {
    "methods": {}
  },
  "userdoc": {
    "methods": {}
  }
}