{
  "contractName": "DataStorage",
  "abi": [
    {
      "anonymous": false,
      "inputs": [
        {
          "indexed": true,
          "internalType": "string",
          "name": "zipData",
          "type": "string"
        }
      ],
      "name": "ZipFileStored",
      "type": "event"
    },
    {
      "constant": true,
      "inputs": [],
      "name": "encodedZipFile",
      "outputs": [
        {
          "internalType": "string",
          "name": "",
          "type": "string"
        }
      ],
      "payable": false,
      "stateMutability": "view",
      "type": "function"
    },
    {
      "constant": false,
      "inputs": [
        {
          "internalType": "string",
          "name": "_zipData",
          "type": "string"
        }
      ],
      "name": "storeZipFile",
      "outputs": [],
      "payable": false,
      "stateMutability": "nonpayable",
      "type": "function"
    },
    {
      "constant": true,
      "inputs": [],
      "name": "getZipFile",
      "outputs": [
        {
          "internalType": "string",
          "name": "",
          "type": "string"
        }
      ],
      "payable": false,
      "stateMutability": "view",
      "type": "function"
    }
  ],
  "bytecode": "0x608060405234801561001057600080fd5b50610606806100206000396000f3fe608060405234801561001057600080fd5b50600436106100415760003560e01c806336f75b67146100465780635a01b0bf146100645780637617b52d14610080575b600080fd5b61004e61009e565b60405161005b919061048c565b60405180910390f35b61007e60048036036100799190810190610334565b61013c565b005b610088610199565b60405161009591906104ae565b60405180910390f35b60008054600181600116156101000203166002900480601f0160208091040260200160405190810160405280929190818152602001828054600181600116156101000203166002900480156101345780601f1061010957610100808354040283529160200191610134565b820191906000526020600020905b81548152906001019060200180831161011757829003601f168201915b505050505081565b806000908051906020019061015292919061023b565b5060006040516101629190610475565b60405180910390207f088b9d594b434c25ddd2e4e5256160776dd9cc98fe6624e7bc261f2b479b531760405160405180910390a250565b606060008054600181600116156101000203166002900480601f0160208091040260200160405190810160405280929190818152602001828054600181600116156101000203166002900480156102315780601f1061020657610100808354040283529160200191610231565b820191906000526020600020905b81548152906001019060200180831161021457829003601f168201915b5050505050905090565b828054600181600116156101000203166002900490600052602060002090601f016020900481019282601f1061027c57805160ff19168380011785556102aa565b828001600101855582156102aa579182015b828111156102a957825182559160200191906001019061028e565b5b5090506102b791906102bb565b5090565b6102dd91905b808211156102d95760008160009055506001016102c1565b5090565b90565b600082601f8301126102f157600080fd5b81356103046102ff826104fd565b6104d0565b9150808252602083016020830185838301111561032057600080fd5b61032b838284610570565b50505092915050565b60006020828403121561034657600080fd5b600082013567ffffffffffffffff81111561036057600080fd5b61036c848285016102e0565b91505092915050565b600061038082610549565b61038a8185610554565b935061039a81856020860161057f565b6103a3816105b2565b840191505092915050565b60006103b98261053e565b6103c38185610554565b93506103d381856020860161057f565b6103dc816105b2565b840191505092915050565b60008154600181166000811461040457600181146104295761046d565b607f60028304166104158187610565565b955060ff198316865280860193505061046d565b600282046104378187610565565b955061044285610529565b60005b8281101561046457815481890152600182019150602081019050610445565b82880195505050505b505092915050565b600061048182846103e7565b915081905092915050565b600060208201905081810360008301526104a681846103ae565b905092915050565b600060208201905081810360008301526104c88184610375565b905092915050565b6000604051905081810181811067ffffffffffffffff821117156104f357600080fd5b8060405250919050565b600067ffffffffffffffff82111561051457600080fd5b601f19601f8301169050602081019050919050565b60008190508160005260206000209050919050565b600081519050919050565b600081519050919050565b600082825260208201905092915050565b600081905092915050565b82818337600083830152505050565b60005b8381101561059d578082015181840152602081019050610582565b838111156105ac576000848401525b50505050565b6000601f19601f830116905091905056fea365627a7a723158201becde7e21517f6cb7b6cedbbe2d58371906c17bc468c1a77a3bee1f9d0539556c6578706572696d656e74616cf564736f6c63430005100040",
  "source": "// SPDX-License-Identifier: MIT\npragma solidity >=0.5.0 <0.9.0;\npragma experimental ABIEncoderV2;\n\ncontract DataStorage {\n    string public encodedZipFile;\n\n    event ZipFileStored(string indexed zipData);\n\n    function storeZipFile(string memory _zipData) public {\n        encodedZipFile = _zipData;\n        emit ZipFileStored(encodedZipFile);\n    }\n\n    function getZipFile() public view returns (string memory) {\n        return encodedZipFile;\n    }\n}\n",
  "sourcePath": "C:\\Users\\user\\Documents\\GitHub\\blockchain_Research_Proj\\Blockchain_component - Copy (2)\\contracts\\DataStorage.sol",
  "compiler": {
    "name": "solc",
    "version": "0.5.16+commit.9c3226ce.Emscripten.clang"
  },
  "schemaVersion": "3.4.16",
  "updatedAt": "2025-03-05T07:01:28.915Z",
  "networkType": "ethereum",
  "devdoc": {
    "methods": {}
  },
  "userdoc": {
    "methods": {}
  }
}