{
  "contractName": "DataStorage",
  "abi": [
    {
      "inputs": [],
      "payable": false,
      "stateMutability": "nonpayable",
      "type": "constructor"
    },
    {
      "anonymous": false,
      "inputs": [
        {
          "indexed": false,
          "internalType": "uint256",
          "name": "id",
          "type": "uint256"
        },
        {
          "indexed": false,
          "internalType": "string",
          "name": "encodedData",
          "type": "string"
        }
      ],
      "name": "DataAdded",
      "type": "event"
    },
    {
      "constant": true,
      "inputs": [],
      "name": "dataCount",
      "outputs": [
        {
          "internalType": "uint256",
          "name": "",
          "type": "uint256"
        }
      ],
      "payable": false,
      "stateMutability": "view",
      "type": "function"
    },
    {
      "constant": true,
      "inputs": [
        {
          "internalType": "uint256",
          "name": "",
          "type": "uint256"
        }
      ],
      "name": "dataEntries",
      "outputs": [
        {
          "internalType": "string",
          "name": "encodedData",
          "type": "string"
        }
      ],
      "payable": false,
      "stateMutability": "view",
      "type": "function"
    },
    {
      "constant": true,
      "inputs": [],
      "name": "owner",
      "outputs": [
        {
          "internalType": "address",
          "name": "",
          "type": "address"
        }
      ],
      "payable": false,
      "stateMutability": "view",
      "type": "function"
    },
    {
      "constant": false,
      "inputs": [
        {
          "internalType": "string",
          "name": "_encodedData",
          "type": "string"
        }
      ],
      "name": "addData",
      "outputs": [],
      "payable": false,
      "stateMutability": "nonpayable",
      "type": "function"
    },
    {
      "constant": false,
      "inputs": [
        {
          "internalType": "string[]",
          "name": "_encodedData",
          "type": "string[]"
        }
      ],
      "name": "addBatchData",
      "outputs": [],
      "payable": false,
      "stateMutability": "nonpayable",
      "type": "function"
    },
    {
      "constant": true,
      "inputs": [],
      "name": "getAllData",
      "outputs": [
        {
          "internalType": "string[]",
          "name": "",
          "type": "string[]"
        }
      ],
      "payable": false,
      "stateMutability": "view",
      "type": "function"
    }
  ],
  "bytecode": "0x608060405234801561001057600080fd5b5033600260006101000a81548173ffffffffffffffffffffffffffffffffffffffff021916908373ffffffffffffffffffffffffffffffffffffffff160217905550610d9a806100616000396000f3fe608060405234801561001057600080fd5b50600436106100625760003560e01c80632d10fa2814610067578063325f4658146100855780635da40c47146100b557806374c08050146100d35780638da5cb5b146100ef578063d4a2498d1461010d575b600080fd5b61006f610129565b60405161007c9190610a94565b60405180910390f35b61009f600480360361009a9190810190610858565b610295565b6040516100ac9190610ab6565b60405180910390f35b6100bd61034b565b6040516100ca9190610b18565b60405180910390f35b6100ed60048036036100e891908101906107d6565b610351565b005b6100f76104b7565b6040516101049190610a79565b60405180910390f35b61012760048036036101229190810190610817565b6104dd565b005b6060600060015411610170576040517f08c379a000000000000000000000000000000000000000000000000000000000815260040161016790610af8565b60405180910390fd5b60606001546040519080825280602002602001820160405280156101a857816020015b60608152602001906001900390816101935790505b50905060008090505b60015481101561028d576000808281526020019081526020016000206000018054600181600116156101000203166002900480601f0160208091040260200160405190810160405280929190818152602001828054600181600116156101000203166002900480156102645780601f1061023957610100808354040283529160200191610264565b820191906000526020600020905b81548152906001019060200180831161024757829003601f168201915b505050505082828151811061027557fe5b602002602001018190525080806001019150506101b1565b508091505090565b6000602052806000526040600020600091509050806000018054600181600116156101000203166002900480601f0160208091040260200160405190810160405280929190818152602001828054600181600116156101000203166002900480156103415780601f1061031657610100808354040283529160200191610341565b820191906000526020600020905b81548152906001019060200180831161032457829003601f168201915b5050505050905081565b60015481565b600260009054906101000a900473ffffffffffffffffffffffffffffffffffffffff1673ffffffffffffffffffffffffffffffffffffffff163373ffffffffffffffffffffffffffffffffffffffff16146103e1576040517f08c379a00000000000000000000000000000000000000000000000000000000081526004016103d890610ad8565b60405180910390fd5b60008090505b81518110156104b357604051806020016040528083838151811061040757fe5b602002602001015181525060008060015481526020019081526020016000206000820151816000019080519060200190610442929190610600565b509050507fb35d322946378a6988952f6ec334d7458ce97c42fbb3ecfc1e00a5062c553a0a60015483838151811061047657fe5b602002602001015160405161048c929190610b33565b60405180910390a160016000815480929190600101919050555080806001019150506103e7565b5050565b600260009054906101000a900473ffffffffffffffffffffffffffffffffffffffff1681565b600260009054906101000a900473ffffffffffffffffffffffffffffffffffffffff1673ffffffffffffffffffffffffffffffffffffffff163373ffffffffffffffffffffffffffffffffffffffff161461056d576040517f08c379a000000000000000000000000000000000000000000000000000000000815260040161056490610ad8565b60405180910390fd5b604051806020016040528082815250600080600154815260200190815260200160002060008201518160000190805190602001906105ac929190610600565b509050507fb35d322946378a6988952f6ec334d7458ce97c42fbb3ecfc1e00a5062c553a0a600154826040516105e3929190610b63565b60405180910390a160016000815480929190600101919050555050565b828054600181600116156101000203166002900490600052602060002090601f016020900481019282601f1061064157805160ff191683800117855561066f565b8280016001018555821561066f579182015b8281111561066e578251825591602001919060010190610653565b5b50905061067c9190610680565b5090565b6106a291905b8082111561069e576000816000905550600101610686565b5090565b90565b600082601f8301126106b657600080fd5b81356106c96106c482610bc0565b610b93565b9150818183526020840193506020810190508360005b8381101561070f57813586016106f58882610719565b8452602084019350602083019250506001810190506106df565b5050505092915050565b600082601f83011261072a57600080fd5b813561073d61073882610be8565b610b93565b9150808252602083016020830185838301111561075957600080fd5b610764838284610ced565b50505092915050565b600082601f83011261077e57600080fd5b813561079161078c82610c14565b610b93565b915080825260208301602083018583830111156107ad57600080fd5b6107b8838284610ced565b50505092915050565b6000813590506107d081610d40565b92915050565b6000602082840312156107e857600080fd5b600082013567ffffffffffffffff81111561080257600080fd5b61080e848285016106a5565b91505092915050565b60006020828403121561082957600080fd5b600082013567ffffffffffffffff81111561084357600080fd5b61084f8482850161076d565b91505092915050565b60006020828403121561086a57600080fd5b6000610878848285016107c1565b91505092915050565b600061088d8383610952565b905092915050565b61089e81610cb1565b82525050565b60006108af82610c50565b6108b98185610c7e565b9350836020820285016108cb85610c40565b8060005b8581101561090757848403895281516108e88582610881565b94506108f383610c71565b925060208a019950506001810190506108cf565b50829750879550505050505092915050565b600061092482610c66565b61092e8185610ca0565b935061093e818560208601610cfc565b61094781610d2f565b840191505092915050565b600061095d82610c5b565b6109678185610c8f565b9350610977818560208601610cfc565b61098081610d2f565b840191505092915050565b600061099682610c5b565b6109a08185610ca0565b93506109b0818560208601610cfc565b6109b981610d2f565b840191505092915050565b60006109d1602683610ca0565b91507f4f6e6c7920746865206f776e65722063616e20706572666f726d20746869732060008301527f616374696f6e00000000000000000000000000000000000000000000000000006020830152604082019050919050565b6000610a37601283610ca0565b91507f4e6f206461746120617661696c61626c652e00000000000000000000000000006000830152602082019050919050565b610a7381610ce3565b82525050565b6000602082019050610a8e6000830184610895565b92915050565b60006020820190508181036000830152610aae81846108a4565b905092915050565b60006020820190508181036000830152610ad0818461098b565b905092915050565b60006020820190508181036000830152610af1816109c4565b9050919050565b60006020820190508181036000830152610b1181610a2a565b9050919050565b6000602082019050610b2d6000830184610a6a565b92915050565b6000604082019050610b486000830185610a6a565b8181036020830152610b5a818461098b565b90509392505050565b6000604082019050610b786000830185610a6a565b8181036020830152610b8a8184610919565b90509392505050565b6000604051905081810181811067ffffffffffffffff82111715610bb657600080fd5b8060405250919050565b600067ffffffffffffffff821115610bd757600080fd5b602082029050602081019050919050565b600067ffffffffffffffff821115610bff57600080fd5b601f19601f8301169050602081019050919050565b600067ffffffffffffffff821115610c2b57600080fd5b601f19601f8301169050602081019050919050565b6000819050602082019050919050565b600081519050919050565b600081519050919050565b600081519050919050565b6000602082019050919050565b600082825260208201905092915050565b600082825260208201905092915050565b600082825260208201905092915050565b6000610cbc82610cc3565b9050919050565b600073ffffffffffffffffffffffffffffffffffffffff82169050919050565b6000819050919050565b82818337600083830152505050565b60005b83811015610d1a578082015181840152602081019050610cff565b83811115610d29576000848401525b50505050565b6000601f19601f8301169050919050565b610d4981610ce3565b8114610d5457600080fd5b5056fea365627a7a72315820580e91b0a35aea270c0ef28ee48c41876b7f7c577989d14a41c9bb95c2e626906c6578706572696d656e74616cf564736f6c63430005100040",
  "source": "// SPDX-License-Identifier: MIT\npragma solidity >=0.5.0 <0.9.0;\npragma experimental ABIEncoderV2; // Needed for encoding/decoding array of strings\n\ncontract DataStorage {\n    struct DataEntry {\n        string encodedData; // Encoded data from ML model\n    }\n    mapping(uint256 => DataEntry) public dataEntries; // Mapping to store data\n    uint256 public dataCount; // Counter for stored data entries\n    address public owner; // Owner of the contract\n\n    event DataAdded(uint256 id, string encodedData); // Event for adding data\n    // Constructor to set the contract owner\n    constructor() public {\n        owner = msg.sender;\n    }\n\n    // Modifier to restrict access to the owner\n    modifier onlyOwner() {\n        require(msg.sender == owner, \"Only the owner can perform this action\");\n        _;\n    }\n    // Function to add a single encoded data entry\n    function addData(string memory _encodedData) public onlyOwner {\n        dataEntries[dataCount] = DataEntry(_encodedData);\n        emit DataAdded(dataCount, _encodedData);\n        dataCount++;\n    }\n    // Function to add multiple encoded data entries in a batch\n    function addBatchData(string[] memory _encodedData) public onlyOwner {\n        for (uint256 i = 0; i < _encodedData.length; i++) {\n            dataEntries[dataCount] = DataEntry(_encodedData[i]);\n            emit DataAdded(dataCount, _encodedData[i]);\n            dataCount++;\n        }\n    }\n    // Function to fetch all encoded data\n    function getAllData() public view returns (string[] memory) {\n        require(dataCount > 0, \"No data available.\");\n        string[] memory allData = new string[](dataCount);\n        for (uint256 i = 0; i < dataCount; i++) {\n            allData[i] = dataEntries[i].encodedData;\n        }\n        return allData;\n    }\n}\n",
  "sourcePath": "C:\\Users\\user\\Desktop\\research\\Blockchain_component - Copy (2)\\contracts\\DataStorage.sol",
  "compiler": {
    "name": "solc",
    "version": "0.5.16+commit.9c3226ce.Emscripten.clang"
  },
  "schemaVersion": "3.4.16",
  "updatedAt": "2025-02-12T09:37:14.041Z",
  "devdoc": {
    "methods": {}
  },
  "userdoc": {
    "methods": {}
  }
}